:0200000480007A
:100000006F00C004732F2034930F8000630AFF0336
:10001000930F90006306FF03930FB0006302FF038A
:10002000170F0000130F0F1D63040F0067000F0070
:10003000732F203463540F006F004000136E9E53E3
:10004000171F00002320CFFD6FF09FFF732540F1A5
:100050006310050073251030635805000F00F00F82
:10006000130E100073000000130E00009702000032
:10007000938282F973905230735020307350303035
:1000800073504030970200809382C2F7638C020065
:10009000739052109302B01A739022307323203061
:1000A000E39E62F873500030372500001305058089
:1000B000732005309702000093824201739012343E
:1000C000732540F17300203073D001347325003460
:1000D000930E3000130E2000631CD50FF3F500348F
:1000E000930E3000130E30006394D50F7366023404
:1000F000930E2000130E4000631CD60DF3560134FE
:10010000930E6000130E50006394D60D3725AD0B8F
:100110001305A5DEF3150534930E2000130E6000C1
:100120006398D50B372500001305A5DE733505341C
:10013000B72EAD0B938EAEDE130E7000631AD50989
:1001400037C500001305F5EE73250534B70EAD0B6A
:10015000130E8000631ED50773250034B7CEAD0B98
:10016000938EFEEE130E90006314D50773251030A6
:10017000135545011375150063040504B7220000EB
:100180009382028073B002309702000093820201D2
:1001900073901234730020301305F00F731500C0F4
:1001A000930EF00F130EA0006314D5031305F00F88
:1001B00073250030930EF00F130EB000631AD501B3
:1001C0000F00F00F130E100073000000631CC0013D
:1001D0000F00F00F63000E00131E1E00136E1E00B2
:1001E000730000000F00F00F130E100073000000EA
:1001F0009302900063025E029302A000630E5E0011
:10020000F322203413038000E39462FC0F00F00F0C
:10021000130E100073000000F3222034130320009B
:10022000E39862FAF32210349382420073901234FE
:0802300073002030731000C0C0
:1010000000000000000000000000000000000000E0
:1010100000000000000000000000000000000000D0
:1010200000000000000000000000000000000000C0
:1010300000000000000000000000000000000000B0
:081040000000000000000000A8
:040000058000200057
:00000001FF
