:0200000480007A
:100000006F00C004732F2034930F8000630AFF0336
:10001000930F90006306FF03930FB0006302FF038A
:10002000170F0080130F0FFE63040F0067000F000F
:10003000732F203463540F006F004000136E9E53E3
:10004000171F00002320CFFD6FF09FFF732540F1A5
:100050006310050073251030635805000F00F00F82
:10006000130E100073000000130E00009702000032
:10007000938282F973905230735020307350303035
:1000800073504030970200809382C2F7638C020065
:10009000739052109302B01A739022307323203061
:1000A000E39E62F873500030970200009382420191
:1000B00073901234732540F173002030B700008034
:1000C00093D11040B70E00C0130E3000639AD129AF
:1000D000B700008093D17040B70E00FF130E4000B0
:1000E0006390D129B700008093D1E040B70EFEFFA6
:1000F000130E50006396D127B70000809380100044
:1001000093D1F041930EF0FF130E6000639AD12556
:10011000B70000809380F0FF93D10040B70E0080BD
:10012000938EFEFF130E7000639CD123B7000080F6
:100130009380F0FF93D11040B70E0040938EFEFFE6
:10014000130E8000639ED121B70000809380F0FFE2
:1001500093D17040B70E0001938EFEFF130E9000F6
:100160006390D121B70000809380F0FF93D1E040ED
:10017000B70E0200938EFEFF130EA0006392D11FF4
:10018000B70000809380F0FF93D1F041930E000000
:10019000130EB0006396D11DB78081819380101833
:1001A00093D10040B78E8181938E1E18130EC0002C
:1001B0006398D11BB78081819380101893D1104030
:1001C000B7CEC0C0938E0E0C130ED000639AD11917
:1001D000B78081819380101893D17040B70E03FFD0
:1001E000938E3E30130EE000639CD117B78081815F
:1001F0009380101893D1E040B70EFEFF938E6E608F
:10020000130EF000639ED115B78081819380101882
:1002100093D1F041930EF0FF130E00016392D115BC
:10022000B700008093D07040B70E00FF130E10018E
:100230006398D01313020000B700008093D1704080
:10024000138301001302120093022000E31652FEF2
:10025000B70E00FF130E20016314D3111302000028
:10026000B700008093D1E040130000001383010029
:100270001302120093022000E31452FEB70EFEFF99
:10028000130E3001631ED30D13020000B70000806F
:100290009380100093D1F041130000001300000080
:1002A000138301001302120093022000E31052FE98
:1002B000930EF0FF130E40016314D30B13020000E2
:1002C000B700008093D17040130212009302200007
:1002D000E31852FEB70E00FF130E50016392D109CE
:1002E00013020000B70000801300000093D1E0402B
:1002F0001302120093022000E31652FEB70EFEFF17
:10030000130E6001639ED10513020000B700008048
:1003100093801000130000001300000093D1F041FF
:100320001302120093022000E31252FE930EF0FF1C
:10033000130E70016396D10393504040930E00005A
:10034000130E8001639ED0019300100213D0A040D1
:10035000930E0000130E90016314D001631CC001C2
:100360000F00F00F63000E00131E1E00136E1E0020
:10037000730000000F00F00F130E10007300000058
:04038000731000C036
:1010000000000000000000000000000000000000E0
:1010100000000000000000000000000000000000D0
:1010200000000000000000000000000000000000C0
:1010300000000000000000000000000000000000B0
:081040000000000000000000A8
:040000058000200057
:00000001FF
